:020000040800F2
:1000000000500020D1060008190700081907000851
:100010001907000819070008190700080000000068
:1000200000000000000000000000000019070008A8
:100030001907000800000000190700081907000848
:100040001907000819070008190700081907000810
:100050001907000819070008190700081907000800
:1000600019070008190700081907000819070008F0
:1000700019070008190700081907000819070008E0
:1000800019070008190700081907000819070008D0
:1000900019070008190700081907000819070008C0
:1000A00019070008190700081907000819070008B0
:1000B00019070008190700081907000819070008A0
:1000C0001907000819070008190700081907000890
:1000D0001907000819070008190700081907000880
:1000E0001907000819070008190700080000000098
:1000F0000000000000000000000000000000000000
:0C01000000000000000000005FF808F1A3
:10010C0010B5054C237833B9044B13B10448AFF345
:10011C0000800123237010BD0000002000000000AF
:10012C006407000808B5034B1BB103490348AFF340
:10013C00008008BD000000000400002064070008D7
:10014C0080B485B000AF0346FB80FB889BB21A4697
:10015C004FF4487302FB03F3FB6000BFFB685A1EAD
:10016C00FA60002BFAD100BF00BF1437BD4680BC2B
:10017C007047000080B582B000AF4FF4803000F0C3
:10018C0029F94FF4E0114FF4803000F051F90220BE
:10019C0000F06CF9002000F085F9002000F09EF9C9
:1001AC000121082000F0B6F94FF44053BB80032323
:1001BC00BB711023FB713B1D1946274800F04EF80C
:1001CC0000237B801DE0244BDB68234A43F48053DF
:1001DC00D3607B889BB2C3F164039BB21846FFF7D4
:1001EC00AFFF1D4BDB681C4A23F48053D3607B8824
:1001FC009BB21846FFF7A4FF7B889BB201339BB2DE
:10020C007B807B889BB2642BDDD900233B801DE077
:10021C00114BDB68104A43F48053D3603B889BB28C
:10022C001846FFF78DFF0C4BDB680B4A23F4805309
:10023C00D3603B889BB2C3F164039BB21846FFF7B3
:10024C007FFF3B889BB201339BB23B803B889BB2C8
:10025C00642BDDD9B4E700BF000C014080B489B039
:10026C0000AF786039600023FB6100233B61002301
:10027C00BB610023FB6000237B610023BB603B68F8
:10028C00DB7803F00F03FB613B68DB7803F01003B2
:10029C00002B05D03B689B781A46FB691343FB6126
:1002AC003B681B88DBB2002B44D07B681B687B61EE
:1002BC000023BB6138E00122BB6902FA03F3FB6047
:1002CC003B681B881A46FB6813403B613A69FB6824
:1002DC009A4226D1BB699B00FB600F22FB6802FA95
:1002EC0003F3BB60BB68DB437A6913407B61FA693B
:1002FC00FB6802FA03F37A6913437B613B68DB7892
:10030C00282B05D10122BB699A407B685A6108E011
:10031C003B68DB78482B04D10122BB699A407B688F
:10032C001A61BB690133BB61BB69072BC3D97B68FD
:10033C007A691A603B681B88FF2B46D97B685B681F
:10034C007B610023BB613AE0BB690833012202FAEE
:10035C0003F3FB603B681B881A46FB6813403B6148
:10036C003A69FB689A4227D1BB699B00FB600F225C
:10037C00FB6802FA03F3BB60BB68DB437A6913408A
:10038C007B61FA69FB6802FA03F37A6913437B61B8
:10039C003B68DB78282B05D1BB69083301229A40D6
:1003AC007B685A613B68DB78482B05D1BB69083305
:1003BC0001229A407B681A61BB690133BB61BB693E
:1003CC00072BC1D97B687A695A6000BF2437BD46B8
:1003DC0080BC704780B483B000AF7860134B1B684F
:1003EC00124A23F480331360104B1B680F4A23F41A
:1003FC00802313607B68B3F5803F04D07B68B3F532
:10040C00802F07D00DE0094B1B68084A43F480335A
:10041C00136006E0054B1B68044A43F4A0231360E9
:10042C0000BF00BF0C37BD4680BC704700100240B7
:10043C0080B485B000AF786039600023FB600A4B54
:10044C005B68FB60FB6823F47C13FB607A683B6899
:10045C001343FA681343FB60034AFB68536000BF05
:10046C001437BD4680BC70470010024080B485B084
:10047C0000AF78600023FB60094B5B68FB60FB6896
:10048C0023F00303FB60FA687B681343FB60044AA8
:10049C00FB68536000BF1437BD4680BC704700BF7B
:1004AC000010024080B485B000AF78600023FB6080
:1004BC00094B5B68FB60FB6823F0F003FB60FA6898
:1004CC007B681343FB60044AFB68536000BF14371E
:1004DC00BD4680BC704700BF0010024080B485B0A0
:1004EC0000AF78600023FB60094B5B68FB60FB6826
:1004FC0023F46053FB607B68DB00FA681343FB60FA
:10050C00034AFB68536000BF1437BD4680BC70477C
:10051C000010024080B483B000AF78600B46FB70D3
:10052C00FB78002B06D0094B9A6908497B6813436A
:10053C008B6106E0054B9A697B68DB4303491340EA
:10054C008B6100BF0C37BD4680BC70470010024069
:10055C0080B500AF154B1B68144A43F001031360C0
:10056C00124B5A681149124B13404B600F4B1B68CE
:10057C000E4A23F0847323F4803313600B4B1B68F7
:10058C000A4A23F480231360084B5B68074A23F460
:10059C00FE035360054B4FF41F029A6000F00CF8F9
:1005AC00044B4FF000629A6000BF80BD0010024007
:1005BC000000FFF800ED00E080B500AF00F002F89D
:1005CC0000BF80BD80B483B000AF00237B600023EC
:1005DC003B603A4B1B68394A43F480331360374B0A
:1005EC001B6803F400333B607B6801337B603B6822
:1005FC00002B03D17B68B3F5A06FF0D12F4B1B6898
:10060C0003F40033002B02D001233B6001E00023F4
:10061C003B603B68012B4BD1294B1B68284A43F0AC
:10062C0010031360264B1B68254A23F00303136049
:10063C00234B1B68224A43F0020313601F4B1F4AD3
:10064C005B6853601D4B1D4A5B6853601B4B5B68BA
:10065C001A4A43F480635360184B5B68174A23F4BF
:10066C007C135360154B5B68144A43F4E8135360D6
:10067C00124B1B68114A43F08073136000BF0F4B81
:10068C001B6803F00073002BF9D00C4B5B680B4A12
:10069C0023F003035360094B5B68084A43F00203E1
:1006AC00536000BF054B5B6803F00C03082BF9D1BA
:1006BC0000BF0C37BD4680BC704700BF0010024025
:1006CC0000200240002103E00B4B5B5843500431E7
:1006DC000A480B4B42189A42F6D30A4A02E000230E
:1006EC0042F8043B084B9A42F9D3FFF731FF00F074
:1006FC000FF8FFF73FFD704784070008000000204B
:10070C0000000020000000201C000020FEE700007C
:10071C0070B500260C4D0D4C641BA410A64209D1DB
:10072C0000F01AF800260A4D0A4C641BA410A642CD
:10073C0005D170BD55F8043B98470136EEE755F8E6
:10074C00043B98470136F2E77C0700087C07000859
:10075C007C07000880070008F8B500BFF8BC08BC8F
:10076C009E467047F8B500BFF8BC08BC9E46704763
:04077C00310100083F
:040780000D0100085F
:04000005080006D118
:00000001FF
